{
  "_format": "hh-sol-artifact-1",
  "contractName": "MyEpicNFT",
  "sourceName": "contracts/MyEpicNFT.sol",
  "abi": [
    {
      "inputs": [],
      "stateMutability": "nonpayable",
      "type": "constructor"
    },
    {
      "anonymous": false,
      "inputs": [
        {
          "indexed": true,
          "internalType": "address",
          "name": "owner",
          "type": "address"
        },
        {
          "indexed": true,
          "internalType": "address",
          "name": "approved",
          "type": "address"
        },
        {
          "indexed": true,
          "internalType": "uint256",
          "name": "tokenId",
          "type": "uint256"
        }
      ],
      "name": "Approval",
      "type": "event"
    },
    {
      "anonymous": false,
      "inputs": [
        {
          "indexed": true,
          "internalType": "address",
          "name": "owner",
          "type": "address"
        },
        {
          "indexed": true,
          "internalType": "address",
          "name": "operator",
          "type": "address"
        },
        {
          "indexed": false,
          "internalType": "bool",
          "name": "approved",
          "type": "bool"
        }
      ],
      "name": "ApprovalForAll",
      "type": "event"
    },
    {
      "anonymous": false,
      "inputs": [
        {
          "indexed": false,
          "internalType": "address",
          "name": "sender",
          "type": "address"
        },
        {
          "indexed": false,
          "internalType": "uint256",
          "name": "tokenId",
          "type": "uint256"
        }
      ],
      "name": "NewEpicNFTMinted",
      "type": "event"
    },
    {
      "anonymous": false,
      "inputs": [
        {
          "indexed": true,
          "internalType": "address",
          "name": "from",
          "type": "address"
        },
        {
          "indexed": true,
          "internalType": "address",
          "name": "to",
          "type": "address"
        },
        {
          "indexed": true,
          "internalType": "uint256",
          "name": "tokenId",
          "type": "uint256"
        }
      ],
      "name": "Transfer",
      "type": "event"
    },
    {
      "inputs": [
        {
          "internalType": "address",
          "name": "to",
          "type": "address"
        },
        {
          "internalType": "uint256",
          "name": "tokenId",
          "type": "uint256"
        }
      ],
      "name": "approve",
      "outputs": [],
      "stateMutability": "nonpayable",
      "type": "function"
    },
    {
      "inputs": [
        {
          "internalType": "address",
          "name": "owner",
          "type": "address"
        }
      ],
      "name": "balanceOf",
      "outputs": [
        {
          "internalType": "uint256",
          "name": "",
          "type": "uint256"
        }
      ],
      "stateMutability": "view",
      "type": "function"
    },
    {
      "inputs": [
        {
          "internalType": "uint256",
          "name": "tokenId",
          "type": "uint256"
        }
      ],
      "name": "getApproved",
      "outputs": [
        {
          "internalType": "address",
          "name": "",
          "type": "address"
        }
      ],
      "stateMutability": "view",
      "type": "function"
    },
    {
      "inputs": [],
      "name": "getNumMinted",
      "outputs": [
        {
          "internalType": "uint256",
          "name": "",
          "type": "uint256"
        }
      ],
      "stateMutability": "view",
      "type": "function"
    },
    {
      "inputs": [
        {
          "internalType": "address",
          "name": "owner",
          "type": "address"
        },
        {
          "internalType": "address",
          "name": "operator",
          "type": "address"
        }
      ],
      "name": "isApprovedForAll",
      "outputs": [
        {
          "internalType": "bool",
          "name": "",
          "type": "bool"
        }
      ],
      "stateMutability": "view",
      "type": "function"
    },
    {
      "inputs": [],
      "name": "makeAnEpicNFT",
      "outputs": [],
      "stateMutability": "nonpayable",
      "type": "function"
    },
    {
      "inputs": [],
      "name": "name",
      "outputs": [
        {
          "internalType": "string",
          "name": "",
          "type": "string"
        }
      ],
      "stateMutability": "view",
      "type": "function"
    },
    {
      "inputs": [
        {
          "internalType": "uint256",
          "name": "tokenId",
          "type": "uint256"
        }
      ],
      "name": "ownerOf",
      "outputs": [
        {
          "internalType": "address",
          "name": "",
          "type": "address"
        }
      ],
      "stateMutability": "view",
      "type": "function"
    },
    {
      "inputs": [
        {
          "internalType": "uint256",
          "name": "tokenId",
          "type": "uint256"
        }
      ],
      "name": "pickRandomFirstWord",
      "outputs": [
        {
          "internalType": "string",
          "name": "",
          "type": "string"
        }
      ],
      "stateMutability": "view",
      "type": "function"
    },
    {
      "inputs": [
        {
          "internalType": "uint256",
          "name": "tokenId",
          "type": "uint256"
        }
      ],
      "name": "pickRandomSecondWord",
      "outputs": [
        {
          "internalType": "string",
          "name": "",
          "type": "string"
        }
      ],
      "stateMutability": "view",
      "type": "function"
    },
    {
      "inputs": [
        {
          "internalType": "uint256",
          "name": "tokenId",
          "type": "uint256"
        }
      ],
      "name": "pickRandomThirdWord",
      "outputs": [
        {
          "internalType": "string",
          "name": "",
          "type": "string"
        }
      ],
      "stateMutability": "view",
      "type": "function"
    },
    {
      "inputs": [
        {
          "internalType": "address",
          "name": "from",
          "type": "address"
        },
        {
          "internalType": "address",
          "name": "to",
          "type": "address"
        },
        {
          "internalType": "uint256",
          "name": "tokenId",
          "type": "uint256"
        }
      ],
      "name": "safeTransferFrom",
      "outputs": [],
      "stateMutability": "nonpayable",
      "type": "function"
    },
    {
      "inputs": [
        {
          "internalType": "address",
          "name": "from",
          "type": "address"
        },
        {
          "internalType": "address",
          "name": "to",
          "type": "address"
        },
        {
          "internalType": "uint256",
          "name": "tokenId",
          "type": "uint256"
        },
        {
          "internalType": "bytes",
          "name": "_data",
          "type": "bytes"
        }
      ],
      "name": "safeTransferFrom",
      "outputs": [],
      "stateMutability": "nonpayable",
      "type": "function"
    },
    {
      "inputs": [
        {
          "internalType": "address",
          "name": "operator",
          "type": "address"
        },
        {
          "internalType": "bool",
          "name": "approved",
          "type": "bool"
        }
      ],
      "name": "setApprovalForAll",
      "outputs": [],
      "stateMutability": "nonpayable",
      "type": "function"
    },
    {
      "inputs": [
        {
          "internalType": "bytes4",
          "name": "interfaceId",
          "type": "bytes4"
        }
      ],
      "name": "supportsInterface",
      "outputs": [
        {
          "internalType": "bool",
          "name": "",
          "type": "bool"
        }
      ],
      "stateMutability": "view",
      "type": "function"
    },
    {
      "inputs": [],
      "name": "symbol",
      "outputs": [
        {
          "internalType": "string",
          "name": "",
          "type": "string"
        }
      ],
      "stateMutability": "view",
      "type": "function"
    },
    {
      "inputs": [
        {
          "internalType": "uint256",
          "name": "tokenId",
          "type": "uint256"
        }
      ],
      "name": "tokenURI",
      "outputs": [
        {
          "internalType": "string",
          "name": "",
          "type": "string"
        }
      ],
      "stateMutability": "view",
      "type": "function"
    },
    {
      "inputs": [
        {
          "internalType": "address",
          "name": "from",
          "type": "address"
        },
        {
          "internalType": "address",
          "name": "to",
          "type": "address"
        },
        {
          "internalType": "uint256",
          "name": "tokenId",
          "type": "uint256"
        }
      ],
      "name": "transferFrom",
      "outputs": [],
      "stateMutability": "nonpayable",
      "type": "function"
    }
  ],
  "bytecode": "0x608060405260405180610160016040528061012f815260200162004d8e61012f91396008908051906020019062000038929190620010d2565b50604051806101a001604052806040518060400160405280600681526020017f313030303020000000000000000000000000000000000000000000000000000081525081526020016040518060400160405280600581526020017f393030302000000000000000000000000000000000000000000000000000000081525081526020016040518060400160405280600581526020017f383030302000000000000000000000000000000000000000000000000000000081525081526020016040518060400160405280600581526020017f373030302000000000000000000000000000000000000000000000000000000081525081526020016040518060400160405280600581526020017f353030302000000000000000000000000000000000000000000000000000000081525081526020016040518060400160405280600581526020017f363030302000000000000000000000000000000000000000000000000000000081525081526020016040518060400160405280600581526020017f343030302000000000000000000000000000000000000000000000000000000081525081526020016040518060400160405280600581526020017f333030302000000000000000000000000000000000000000000000000000000081525081526020016040518060400160405280600581526020017f323030302000000000000000000000000000000000000000000000000000000081525081526020016040518060400160405280600681526020017f313130303020000000000000000000000000000000000000000000000000000081525081526020016040518060400160405280600681526020017f313230303020000000000000000000000000000000000000000000000000000081525081526020016040518060400160405280600681526020017f313330303020000000000000000000000000000000000000000000000000000081525081526020016040518060400160405280600681526020017f3230303030200000000000000000000000000000000000000000000000000000815250815250600990600d6200035492919062001163565b506040518061032001604052806040518060400160405280600781526020017f48756e677279200000000000000000000000000000000000000000000000000081525081526020016040518060400160405280600881526020017f546869727374792000000000000000000000000000000000000000000000000081525081526020016040518060400160405280600681526020017f546972656420000000000000000000000000000000000000000000000000000081525081526020016040518060400160405280600681526020017f426f72656420000000000000000000000000000000000000000000000000000081525081526020016040518060400160405280600781526020017f486f6e657374200000000000000000000000000000000000000000000000000081525081526020016040518060400160405280600881526020017f4261736866756c2000000000000000000000000000000000000000000000000081525081526020016040518060400160405280600881526020017f437572696f75732000000000000000000000000000000000000000000000000081525081526020016040518060400160405280600681526020017f486170707920000000000000000000000000000000000000000000000000000081525081526020016040518060400160405280600581526020017f536f72652000000000000000000000000000000000000000000000000000000081525081526020016040518060400160405280600681526020017f46756e6e7920000000000000000000000000000000000000000000000000000081525081526020016040518060400160405280600481526020017f536164200000000000000000000000000000000000000000000000000000000081525081526020016040518060400160405280600b81526020017f44657465726d696e65642000000000000000000000000000000000000000000081525081526020016040518060400160405280600a81526020017f52656772657466756c200000000000000000000000000000000000000000000081525081526020016040518060400160405280600681526020017f416e67727920000000000000000000000000000000000000000000000000000081525081526020016040518060400160405280600981526020017f5374756e6e696e6720000000000000000000000000000000000000000000000081525081526020016040518060400160405280600981526020017f4d696c6974616e7420000000000000000000000000000000000000000000000081525081526020016040518060400160405280600681526020017f436c65616e20000000000000000000000000000000000000000000000000000081525081526020016040518060400160405280600681526020017f46756e6e7920000000000000000000000000000000000000000000000000000081525081526020016040518060400160405280600b81526020017f446973747261756768742000000000000000000000000000000000000000000081525081526020016040518060400160405280600681526020017f4c6f79616c20000000000000000000000000000000000000000000000000000081525081526020016040518060400160405280600681526020017f53696c6c7920000000000000000000000000000000000000000000000000000081525081526020016040518060400160405280600781526020017f536f6d626572200000000000000000000000000000000000000000000000000081525081526020016040518060400160405280600c81526020017f556e73746f707061626c6520000000000000000000000000000000000000000081525081526020016040518060400160405280600981526020017f496d6d617475726520000000000000000000000000000000000000000000000081525081526020016040518060400160405280600981526020017f6a7576656e696c65200000000000000000000000000000000000000000000000815250815250600a90601962000934929190620011ca565b506040518061030001604052806040518060400160405280600681526020017f486970706f73000000000000000000000000000000000000000000000000000081525081526020016040518060400160405280600681526020017f546967657273000000000000000000000000000000000000000000000000000081525081526020016040518060400160405280600481526020017f436174730000000000000000000000000000000000000000000000000000000081525081526020016040518060400160405280600481526020017f446f67730000000000000000000000000000000000000000000000000000000081525081526020016040518060400160405280600581526020017f4c696f6e7300000000000000000000000000000000000000000000000000000081525081526020016040518060400160405280600481526020017f417065730000000000000000000000000000000000000000000000000000000081525081526020016040518060400160405280600881526020017f50656e6775696e7300000000000000000000000000000000000000000000000081525081526020016040518060400160405280600781526020017f506967656f6e730000000000000000000000000000000000000000000000000081525081526020016040518060400160405280600481526020017f426174730000000000000000000000000000000000000000000000000000000081525081526020016040518060400160405280600481526020017f4f776c730000000000000000000000000000000000000000000000000000000081525081526020016040518060400160405280600681526020017f4761746f7273000000000000000000000000000000000000000000000000000081525081526020016040518060400160405280600681526020017f5268696e6f73000000000000000000000000000000000000000000000000000081525081526020016040518060400160405280600581526020017f5365616c7300000000000000000000000000000000000000000000000000000081525081526020016040518060400160405280600881526020017f53706172726f777300000000000000000000000000000000000000000000000081525081526020016040518060400160405280600681526020017f4561676c6573000000000000000000000000000000000000000000000000000081525081526020016040518060400160405280600781526020017f5261636f6f6e730000000000000000000000000000000000000000000000000081525081526020016040518060400160405280600681526020017f50616e646173000000000000000000000000000000000000000000000000000081525081526020016040518060400160405280600881526020017f556e69636f726e7300000000000000000000000000000000000000000000000081525081526020016040518060400160405280600681526020017f4c656d757273000000000000000000000000000000000000000000000000000081525081526020016040518060400160405280600881526020017f436865657461687300000000000000000000000000000000000000000000000081525081526020016040518060400160405280600881526020017f446f6c7068696e7300000000000000000000000000000000000000000000000081525081526020016040518060400160405280600581526020017f437261627300000000000000000000000000000000000000000000000000000081525081526020016040518060400160405280600881526020017f4c6f62737465727300000000000000000000000000000000000000000000000081525081526020016040518060400160405280600681526020017f4372616e65730000000000000000000000000000000000000000000000000000815250815250600b90601862000ed992919062001231565b5034801562000ee757600080fd5b506040518060400160405280600981526020017f5371756172654e465400000000000000000000000000000000000000000000008152506040518060400160405280600681526020017f5351554152450000000000000000000000000000000000000000000000000000815250816000908051906020019062000f6c929190620010d2565b50806001908051906020019062000f85929190620010d2565b50505062000fd36040518060400160405280600281526020017f676d00000000000000000000000000000000000000000000000000000000000081525062000ff060201b620012b31760201c565b62000fea60076200109360201b6200134c1760201c565b62001452565b620010908160405160240162001007919062001366565b6040516020818303038152906040527f41304fac000000000000000000000000000000000000000000000000000000007bffffffffffffffffffffffffffffffffffffffffffffffffffffffff19166020820180517bffffffffffffffffffffffffffffffffffffffffffffffffffffffff8381831617835250505050620010a960201b60201c565b50565b6001816000016000828254019250508190555050565b60008151905060006a636f6e736f6c652e6c6f679050602083016000808483855afa5050505050565b828054620010e090620013dc565b90600052602060002090601f01602090048101928262001104576000855562001150565b82601f106200111f57805160ff191683800117855562001150565b8280016001018555821562001150579182015b828111156200114f57825182559160200191906001019062001132565b5b5090506200115f919062001298565b5090565b828054828255906000526020600020908101928215620011b7579160200282015b82811115620011b6578251829080519060200190620011a5929190620010d2565b509160200191906001019062001184565b5b509050620011c69190620012b7565b5090565b8280548282559060005260206000209081019282156200121e579160200282015b828111156200121d5782518290805190602001906200120c929190620010d2565b5091602001919060010190620011eb565b5b5090506200122d9190620012b7565b5090565b82805482825590600052602060002090810192821562001285579160200282015b828111156200128457825182908051906020019062001273929190620010d2565b509160200191906001019062001252565b5b509050620012949190620012b7565b5090565b5b80821115620012b357600081600090555060010162001299565b5090565b5b80821115620012db5760008181620012d19190620012df565b50600101620012b8565b5090565b508054620012ed90620013dc565b6000825580601f1062001301575062001322565b601f01602090049060005260206000209081019062001321919062001298565b5b50565b600062001332826200138a565b6200133e818562001395565b935062001350818560208601620013a6565b6200135b8162001441565b840191505092915050565b6000602082019050818103600083015262001382818462001325565b905092915050565b600081519050919050565b600082825260208201905092915050565b60005b83811015620013c6578082015181840152602081019050620013a9565b83811115620013d6576000848401525b50505050565b60006002820490506001821680620013f557607f821691505b602082108114156200140c576200140b62001412565b5b50919050565b7f4e487b7100000000000000000000000000000000000000000000000000000000600052602260045260246000fd5b6000601f19601f8301169050919050565b61392c80620014626000396000f3fe608060405234801561001057600080fd5b50600436106101165760003560e01c806370a08231116100a2578063b88d4fde11610071578063b88d4fde14610305578063c575757a14610321578063c87b56dd14610351578063de9d132f14610381578063e985e9c51461038b57610116565b806370a082311461026b57806395d89b411461029b578063a22cb465146102b9578063b187301f146102d557610116565b806323b872dd116100e957806323b872dd146101b55780632de38d68146101d15780633726230a1461020157806342842e0e1461021f5780636352211e1461023b57610116565b806301ffc9a71461011b57806306fdde031461014b578063081812fc14610169578063095ea7b314610199575b600080fd5b61013560048036038101906101309190612546565b6103bb565b6040516101429190613182565b60405180910390f35b61015361049d565b604051610160919061319d565b60405180910390f35b610183600480360381019061017e9190612598565b61052f565b60405161019091906130f2565b60405180910390f35b6101b360048036038101906101ae919061250a565b6105b4565b005b6101cf60048036038101906101ca9190612404565b6106cc565b005b6101eb60048036038101906101e69190612598565b61072c565b6040516101f8919061319d565b60405180910390f35b61020961084a565b604051610216919061341d565b60405180910390f35b61023960048036038101906102349190612404565b610867565b005b61025560048036038101906102509190612598565b610887565b60405161026291906130f2565b60405180910390f35b6102856004803603810190610280919061239f565b610939565b604051610292919061341d565b60405180910390f35b6102a36109f1565b6040516102b0919061319d565b60405180910390f35b6102d360048036038101906102ce91906124ce565b610a83565b005b6102ef60048036038101906102ea9190612598565b610c04565b6040516102fc919061319d565b60405180910390f35b61031f600480360381019061031a9190612453565b610d22565b005b61033b60048036038101906103369190612598565b610d84565b604051610348919061319d565b60405180910390f35b61036b60048036038101906103669190612598565b610ea2565b604051610378919061319d565b60405180910390f35b610389610ff4565b005b6103a560048036038101906103a091906123c8565b61121f565b6040516103b29190613182565b60405180910390f35b60007f80ac58cd000000000000000000000000000000000000000000000000000000007bffffffffffffffffffffffffffffffffffffffffffffffffffffffff1916827bffffffffffffffffffffffffffffffffffffffffffffffffffffffff1916148061048657507f5b5e139f000000000000000000000000000000000000000000000000000000007bffffffffffffffffffffffffffffffffffffffffffffffffffffffff1916827bffffffffffffffffffffffffffffffffffffffffffffffffffffffff1916145b80610496575061049582611362565b5b9050919050565b6060600080546104ac906136bc565b80601f01602080910402602001604051908101604052809291908181526020018280546104d8906136bc565b80156105255780601f106104fa57610100808354040283529160200191610525565b820191906000526020600020905b81548152906001019060200180831161050857829003601f168201915b5050505050905090565b600061053a826113cc565b610579576040517f08c379a00000000000000000000000000000000000000000000000000000000081526004016105709061337d565b60405180910390fd5b6004600083815260200190815260200160002060009054906101000a900473ffffffffffffffffffffffffffffffffffffffff169050919050565b60006105bf82610887565b90508073ffffffffffffffffffffffffffffffffffffffff168373ffffffffffffffffffffffffffffffffffffffff161415610630576040517f08c379a0000000000000000000000000000000000000000000000000000000008152600401610627906133dd565b60405180910390fd5b8073ffffffffffffffffffffffffffffffffffffffff1661064f611438565b73ffffffffffffffffffffffffffffffffffffffff16148061067e575061067d81610678611438565b61121f565b5b6106bd576040517f08c379a00000000000000000000000000000000000000000000000000000000081526004016106b49061329d565b60405180910390fd5b6106c78383611440565b505050565b6106dd6106d7611438565b826114f9565b61071c576040517f08c379a0000000000000000000000000000000000000000000000000000000008152600401610713906133fd565b60405180910390fd5b6107278383836115d7565b505050565b6060600061076061073c84611833565b60405160200161074c91906130ae565b6040516020818303038152906040526119e0565b9050600980549050816107739190613737565b9050600981815481106107af577f4e487b7100000000000000000000000000000000000000000000000000000000600052603260045260246000fd5b9060005260206000200180546107c4906136bc565b80601f01602080910402602001604051908101604052809291908181526020018280546107f0906136bc565b801561083d5780601f106108125761010080835404028352916020019161083d565b820191906000526020600020905b81548152906001019060200180831161082057829003601f168201915b5050505050915050919050565b600060016108586007611a13565b61086291906135d2565b905090565b61088283838360405180602001604052806000815250610d22565b505050565b6000806002600084815260200190815260200160002060009054906101000a900473ffffffffffffffffffffffffffffffffffffffff169050600073ffffffffffffffffffffffffffffffffffffffff168173ffffffffffffffffffffffffffffffffffffffff161415610930576040517f08c379a0000000000000000000000000000000000000000000000000000000008152600401610927906132dd565b60405180910390fd5b80915050919050565b60008073ffffffffffffffffffffffffffffffffffffffff168273ffffffffffffffffffffffffffffffffffffffff1614156109aa576040517f08c379a00000000000000000000000000000000000000000000000000000000081526004016109a1906132bd565b60405180910390fd5b600360008373ffffffffffffffffffffffffffffffffffffffff1673ffffffffffffffffffffffffffffffffffffffff168152602001908152602001600020549050919050565b606060018054610a00906136bc565b80601f0160208091040260200160405190810160405280929190818152602001828054610a2c906136bc565b8015610a795780601f10610a4e57610100808354040283529160200191610a79565b820191906000526020600020905b815481529060010190602001808311610a5c57829003601f168201915b5050505050905090565b610a8b611438565b73ffffffffffffffffffffffffffffffffffffffff168273ffffffffffffffffffffffffffffffffffffffff161415610af9576040517f08c379a0000000000000000000000000000000000000000000000000000000008152600401610af09061325d565b60405180910390fd5b8060056000610b06611438565b73ffffffffffffffffffffffffffffffffffffffff1673ffffffffffffffffffffffffffffffffffffffff16815260200190815260200160002060008473ffffffffffffffffffffffffffffffffffffffff1673ffffffffffffffffffffffffffffffffffffffff16815260200190815260200160002060006101000a81548160ff0219169083151502179055508173ffffffffffffffffffffffffffffffffffffffff16610bb3611438565b73ffffffffffffffffffffffffffffffffffffffff167f17307eab39ab6107e8899845ad3d59bd9653f200f220920489ca2b5937696c3183604051610bf89190613182565b60405180910390a35050565b60606000610c38610c1484611833565b604051602001610c249190613047565b6040516020818303038152906040526119e0565b9050600a8054905081610c4b9190613737565b9050600a8181548110610c87577f4e487b7100000000000000000000000000000000000000000000000000000000600052603260045260246000fd5b906000526020600020018054610c9c906136bc565b80601f0160208091040260200160405190810160405280929190818152602001828054610cc8906136bc565b8015610d155780601f10610cea57610100808354040283529160200191610d15565b820191906000526020600020905b815481529060010190602001808311610cf857829003601f168201915b5050505050915050919050565b610d33610d2d611438565b836114f9565b610d72576040517f08c379a0000000000000000000000000000000000000000000000000000000008152600401610d69906133fd565b60405180910390fd5b610d7e84848484611a21565b50505050565b60606000610db8610d9484611833565b604051602001610da49190613025565b6040516020818303038152906040526119e0565b9050600b8054905081610dcb9190613737565b9050600b8181548110610e07577f4e487b7100000000000000000000000000000000000000000000000000000000600052603260045260246000fd5b906000526020600020018054610e1c906136bc565b80601f0160208091040260200160405190810160405280929190818152602001828054610e48906136bc565b8015610e955780601f10610e6a57610100808354040283529160200191610e95565b820191906000526020600020905b815481529060010190602001808311610e7857829003601f168201915b5050505050915050919050565b6060610ead826113cc565b610eec576040517f08c379a0000000000000000000000000000000000000000000000000000000008152600401610ee39061335d565b60405180910390fd5b6000600660008481526020019081526020016000208054610f0c906136bc565b80601f0160208091040260200160405190810160405280929190818152602001828054610f38906136bc565b8015610f855780601f10610f5a57610100808354040283529160200191610f85565b820191906000526020600020905b815481529060010190602001808311610f6857829003601f168201915b505050505090506000610f96611a7d565b9050600081511415610fac578192505050610fef565b600082511115610fe1578082604051602001610fc9929190612fa1565b60405160208183030381529060405292505050610fef565b610fea84611a94565b925050505b919050565b60006110006007611a13565b90506020811115611046576040517f08c379a000000000000000000000000000000000000000000000000000000000815260040161103d9061331d565b60405180910390fd5b60006110518261072c565b9050600061105e83610c04565b9050600061106b84610d84565b9050600083838360405160200161108493929190612fc5565b604051602081830303815290604052905060006008826040516020016110ab929190612ff6565b604051602081830303815290604052905060006110f0836110cb84611b3b565b6040516020016110dc929190613069565b604051602081830303815290604052611b3b565b905060008160405160200161110591906130d0565b60405160208183030381529060405290506111546040518060400160405280601581526020017f0a2d2d2d2d2d2d2d2d2d2d2d2d2d2d2d2d2d2d2d2d00000000000000000000008152506112b3565b61115d816112b3565b61119b6040518060400160405280601581526020017f2d2d2d2d2d2d2d2d2d2d2d2d2d2d2d2d2d2d2d2d0a00000000000000000000008152506112b3565b6111a53389611cf9565b6111af8882611d17565b6111b9600761134c565b6111dc604051806060016040528060258152602001613892602591398933611d8b565b7febb98688741ffa4c7589bf325de30cf7becb63de567842e1ccdb6cb949fdc82c338960405161120d929190613159565b60405180910390a15050505050505050565b6000600560008473ffffffffffffffffffffffffffffffffffffffff1673ffffffffffffffffffffffffffffffffffffffff16815260200190815260200160002060008373ffffffffffffffffffffffffffffffffffffffff1673ffffffffffffffffffffffffffffffffffffffff16815260200190815260200160002060009054906101000a900460ff16905092915050565b611349816040516024016112c7919061319d565b6040516020818303038152906040527f41304fac000000000000000000000000000000000000000000000000000000007bffffffffffffffffffffffffffffffffffffffffffffffffffffffff19166020820180517bffffffffffffffffffffffffffffffffffffffffffffffffffffffff8381831617835250505050611e2a565b50565b6001816000016000828254019250508190555050565b60007f01ffc9a7000000000000000000000000000000000000000000000000000000007bffffffffffffffffffffffffffffffffffffffffffffffffffffffff1916827bffffffffffffffffffffffffffffffffffffffffffffffffffffffff1916149050919050565b60008073ffffffffffffffffffffffffffffffffffffffff166002600084815260200190815260200160002060009054906101000a900473ffffffffffffffffffffffffffffffffffffffff1673ffffffffffffffffffffffffffffffffffffffff1614159050919050565b600033905090565b816004600083815260200190815260200160002060006101000a81548173ffffffffffffffffffffffffffffffffffffffff021916908373ffffffffffffffffffffffffffffffffffffffff160217905550808273ffffffffffffffffffffffffffffffffffffffff166114b383610887565b73ffffffffffffffffffffffffffffffffffffffff167f8c5be1e5ebec7d5bd14f71427d1e84f3dd0314c0f7b2291e5b200ac8c7c3b92560405160405180910390a45050565b6000611504826113cc565b611543576040517f08c379a000000000000000000000000000000000000000000000000000000000815260040161153a9061327d565b60405180910390fd5b600061154e83610887565b90508073ffffffffffffffffffffffffffffffffffffffff168473ffffffffffffffffffffffffffffffffffffffff1614806115bd57508373ffffffffffffffffffffffffffffffffffffffff166115a58461052f565b73ffffffffffffffffffffffffffffffffffffffff16145b806115ce57506115cd818561121f565b5b91505092915050565b8273ffffffffffffffffffffffffffffffffffffffff166115f782610887565b73ffffffffffffffffffffffffffffffffffffffff161461164d576040517f08c379a00000000000000000000000000000000000000000000000000000000081526004016116449061339d565b60405180910390fd5b600073ffffffffffffffffffffffffffffffffffffffff168273ffffffffffffffffffffffffffffffffffffffff1614156116bd576040517f08c379a00000000000000000000000000000000000000000000000000000000081526004016116b49061323d565b60405180910390fd5b6116c8838383611e53565b6116d3600082611440565b6001600360008573ffffffffffffffffffffffffffffffffffffffff1673ffffffffffffffffffffffffffffffffffffffff168152602001908152602001600020600082825461172391906135d2565b925050819055506001600360008473ffffffffffffffffffffffffffffffffffffffff1673ffffffffffffffffffffffffffffffffffffffff168152602001908152602001600020600082825461177a91906134f1565b92505081905550816002600083815260200190815260200160002060006101000a81548173ffffffffffffffffffffffffffffffffffffffff021916908373ffffffffffffffffffffffffffffffffffffffff160217905550808273ffffffffffffffffffffffffffffffffffffffff168473ffffffffffffffffffffffffffffffffffffffff167fddf252ad1be2c89b69c2b068fc378daa952ba7f163c4a11628f55a4df523b3ef60405160405180910390a4505050565b6060600082141561187b576040518060400160405280600181526020017f300000000000000000000000000000000000000000000000000000000000000081525090506119db565b600082905060005b600082146118ad578080611896906136ee565b915050600a826118a69190613547565b9150611883565b60008167ffffffffffffffff8111156118ef577f4e487b7100000000000000000000000000000000000000000000000000000000600052604160045260246000fd5b6040519080825280601f01601f1916602001820160405280156119215781602001600182028036833780820191505090505b5090505b600085146119d45760018261193a91906135d2565b9150600a856119499190613737565b603061195591906134f1565b60f81b818381518110611991577f4e487b7100000000000000000000000000000000000000000000000000000000600052603260045260246000fd5b60200101907effffffffffffffffffffffffffffffffffffffffffffffffffffffffffffff1916908160001a905350600a856119cd9190613547565b9450611925565b8093505050505b919050565b6000816040516020016119f39190612f8a565b6040516020818303038152906040528051906020012060001c9050919050565b600081600001549050919050565b611a2c8484846115d7565b611a3884848484611e58565b611a77576040517f08c379a0000000000000000000000000000000000000000000000000000000008152600401611a6e906131fd565b60405180910390fd5b50505050565b606060405180602001604052806000815250905090565b6060611a9f826113cc565b611ade576040517f08c379a0000000000000000000000000000000000000000000000000000000008152600401611ad5906133bd565b60405180910390fd5b6000611ae8611a7d565b90506000815111611b085760405180602001604052806000815250611b33565b80611b1284611833565b604051602001611b23929190612fa1565b6040516020818303038152906040525b915050919050565b60606000825190506000811415611b645760405180602001604052806000815250915050611cf4565b60006003600283611b7591906134f1565b611b7f9190613547565b6004611b8b9190613578565b90506000602082611b9c91906134f1565b67ffffffffffffffff811115611bdb577f4e487b7100000000000000000000000000000000000000000000000000000000600052604160045260246000fd5b6040519080825280601f01601f191660200182016040528015611c0d5781602001600182028036833780820191505090505b50905060006040518060600160405280604081526020016138b7604091399050600181016020830160005b86811015611cb15760038101905062ffffff818a015116603f8160121c168401518060081b905060ff603f83600c1c1686015116810190508060081b905060ff603f8360061c1686015116810190508060081b905060ff603f831686015116810190508060e01b90508084526004840193505050611c38565b506003860660018114611ccb5760028114611cdb57611ce6565b613d3d60f01b6002830352611ce6565b603d60f81b60018303525b508484525050819450505050505b919050565b611d13828260405180602001604052806000815250611fef565b5050565b611d20826113cc565b611d5f576040517f08c379a0000000000000000000000000000000000000000000000000000000008152600401611d56906132fd565b60405180910390fd5b80600660008481526020019081526020016000209080519060200190611d8692919061222b565b505050565b611e25838383604051602401611da3939291906131bf565b6040516020818303038152906040527fe3849f79000000000000000000000000000000000000000000000000000000007bffffffffffffffffffffffffffffffffffffffffffffffffffffffff19166020820180517bffffffffffffffffffffffffffffffffffffffffffffffffffffffff8381831617835250505050611e2a565b505050565b60008151905060006a636f6e736f6c652e6c6f679050602083016000808483855afa5050505050565b505050565b6000611e798473ffffffffffffffffffffffffffffffffffffffff1661204a565b15611fe2578373ffffffffffffffffffffffffffffffffffffffff1663150b7a02611ea2611438565b8786866040518563ffffffff1660e01b8152600401611ec4949392919061310d565b602060405180830381600087803b158015611ede57600080fd5b505af1925050508015611f0f57506040513d601f19601f82011682018060405250810190611f0c919061256f565b60015b611f92573d8060008114611f3f576040519150601f19603f3d011682016040523d82523d6000602084013e611f44565b606091505b50600081511415611f8a576040517f08c379a0000000000000000000000000000000000000000000000000000000008152600401611f81906131fd565b60405180910390fd5b805181602001fd5b63150b7a0260e01b7bffffffffffffffffffffffffffffffffffffffffffffffffffffffff1916817bffffffffffffffffffffffffffffffffffffffffffffffffffffffff191614915050611fe7565b600190505b949350505050565b611ff9838361205d565b6120066000848484611e58565b612045576040517f08c379a000000000000000000000000000000000000000000000000000000000815260040161203c906131fd565b60405180910390fd5b505050565b600080823b905060008111915050919050565b600073ffffffffffffffffffffffffffffffffffffffff168273ffffffffffffffffffffffffffffffffffffffff1614156120cd576040517f08c379a00000000000000000000000000000000000000000000000000000000081526004016120c49061333d565b60405180910390fd5b6120d6816113cc565b15612116576040517f08c379a000000000000000000000000000000000000000000000000000000000815260040161210d9061321d565b60405180910390fd5b61212260008383611e53565b6001600360008473ffffffffffffffffffffffffffffffffffffffff1673ffffffffffffffffffffffffffffffffffffffff168152602001908152602001600020600082825461217291906134f1565b92505081905550816002600083815260200190815260200160002060006101000a81548173ffffffffffffffffffffffffffffffffffffffff021916908373ffffffffffffffffffffffffffffffffffffffff160217905550808273ffffffffffffffffffffffffffffffffffffffff16600073ffffffffffffffffffffffffffffffffffffffff167fddf252ad1be2c89b69c2b068fc378daa952ba7f163c4a11628f55a4df523b3ef60405160405180910390a45050565b828054612237906136bc565b90600052602060002090601f01602090048101928261225957600085556122a0565b82601f1061227257805160ff19168380011785556122a0565b828001600101855582156122a0579182015b8281111561229f578251825591602001919060010190612284565b5b5090506122ad91906122b1565b5090565b5b808211156122ca5760008160009055506001016122b2565b5090565b60006122e16122dc84613469565b613438565b9050828152602081018484840111156122f957600080fd5b61230484828561367a565b509392505050565b60008135905061231b81613835565b92915050565b6000813590506123308161384c565b92915050565b60008135905061234581613863565b92915050565b60008151905061235a81613863565b92915050565b600082601f83011261237157600080fd5b81356123818482602086016122ce565b91505092915050565b6000813590506123998161387a565b92915050565b6000602082840312156123b157600080fd5b60006123bf8482850161230c565b91505092915050565b600080604083850312156123db57600080fd5b60006123e98582860161230c565b92505060206123fa8582860161230c565b9150509250929050565b60008060006060848603121561241957600080fd5b60006124278682870161230c565b93505060206124388682870161230c565b92505060406124498682870161238a565b9150509250925092565b6000806000806080858703121561246957600080fd5b60006124778782880161230c565b94505060206124888782880161230c565b93505060406124998782880161238a565b925050606085013567ffffffffffffffff8111156124b657600080fd5b6124c287828801612360565b91505092959194509250565b600080604083850312156124e157600080fd5b60006124ef8582860161230c565b925050602061250085828601612321565b9150509250929050565b6000806040838503121561251d57600080fd5b600061252b8582860161230c565b925050602061253c8582860161238a565b9150509250929050565b60006020828403121561255857600080fd5b600061256684828501612336565b91505092915050565b60006020828403121561258157600080fd5b600061258f8482850161234b565b91505092915050565b6000602082840312156125aa57600080fd5b60006125b88482850161238a565b91505092915050565b6125ca81613606565b82525050565b6125d981613618565b82525050565b60006125ea826134ae565b6125f481856134c4565b9350612604818560208601613689565b61260d81613824565b840191505092915050565b6000612623826134b9565b61262d81856134d5565b935061263d818560208601613689565b61264681613824565b840191505092915050565b600061265c826134b9565b61266681856134e6565b9350612676818560208601613689565b80840191505092915050565b6000815461268f816136bc565b61269981866134e6565b945060018216600081146126b457600181146126c5576126f8565b60ff198316865281860193506126f8565b6126ce85613499565b60005b838110156126f0578154818901526001820191506020810190506126d1565b838801955050505b50505092915050565b600061270e6032836134d5565b91507f4552433732313a207472616e7366657220746f206e6f6e20455243373231526560008301527f63656976657220696d706c656d656e74657200000000000000000000000000006020830152604082019050919050565b6000612774601c836134d5565b91507f4552433732313a20746f6b656e20616c7265616479206d696e746564000000006000830152602082019050919050565b60006127b4600a836134e6565b91507f54484952445f574f5244000000000000000000000000000000000000000000006000830152600a82019050919050565b60006127f46024836134d5565b91507f4552433732313a207472616e7366657220746f20746865207a65726f2061646460008301527f72657373000000000000000000000000000000000000000000000000000000006020830152604082019050919050565b600061285a6019836134d5565b91507f4552433732313a20617070726f766520746f2063616c6c6572000000000000006000830152602082019050919050565b600061289a600b836134e6565b91507f5345434f4e445f574f52440000000000000000000000000000000000000000006000830152600b82019050919050565b60006128da602c836134d5565b91507f4552433732313a206f70657261746f7220717565727920666f72206e6f6e657860008301527f697374656e7420746f6b656e00000000000000000000000000000000000000006020830152604082019050919050565b6000612940600d836134e6565b91507f3c2f746578743e3c2f7376673e000000000000000000000000000000000000006000830152600d82019050919050565b60006129806038836134d5565b91507f4552433732313a20617070726f76652063616c6c6572206973206e6f74206f7760008301527f6e6572206e6f7220617070726f76656420666f7220616c6c00000000000000006020830152604082019050919050565b60006129e6602a836134d5565b91507f4552433732313a2062616c616e636520717565727920666f7220746865207a6560008301527f726f2061646472657373000000000000000000000000000000000000000000006020830152604082019050919050565b6000612a4c6029836134d5565b91507f4552433732313a206f776e657220717565727920666f72206e6f6e657869737460008301527f656e7420746f6b656e00000000000000000000000000000000000000000000006020830152604082019050919050565b6000612ab2602e836134d5565b91507f45524337323155524953746f726167653a2055524920736574206f66206e6f6e60008301527f6578697374656e7420746f6b656e0000000000000000000000000000000000006020830152604082019050919050565b6000612b18601a836134d5565b91507f416c6c204e4654732068617665206265656e206d696e746564210000000000006000830152602082019050919050565b6000612b58605d836134e6565b91507f222c20226465736372697074696f6e223a20224120636f6c6c656374696f6e2060008301527f6f6620636f6c6c656374696f6e206e616d6573203a29222c2022696d6167652260208301527f3a2022646174613a696d6167652f7376672b786d6c3b6261736536342c0000006040830152605d82019050919050565b6000612be46002836134e6565b91507f227d0000000000000000000000000000000000000000000000000000000000006000830152600282019050919050565b6000612c246020836134d5565b91507f4552433732313a206d696e7420746f20746865207a65726f20616464726573736000830152602082019050919050565b6000612c646031836134d5565b91507f45524337323155524953746f726167653a2055524920717565727920666f722060008301527f6e6f6e6578697374656e7420746f6b656e0000000000000000000000000000006020830152604082019050919050565b6000612cca602c836134d5565b91507f4552433732313a20617070726f76656420717565727920666f72206e6f6e657860008301527f697374656e7420746f6b656e00000000000000000000000000000000000000006020830152604082019050919050565b6000612d306029836134d5565b91507f4552433732313a207472616e73666572206f6620746f6b656e2074686174206960008301527f73206e6f74206f776e00000000000000000000000000000000000000000000006020830152604082019050919050565b6000612d96602f836134d5565b91507f4552433732314d657461646174613a2055524920717565727920666f72206e6f60008301527f6e6578697374656e7420746f6b656e00000000000000000000000000000000006020830152604082019050919050565b6000612dfc600a836134e6565b91507f7b226e616d65223a2022000000000000000000000000000000000000000000006000830152600a82019050919050565b6000612e3c6021836134d5565b91507f4552433732313a20617070726f76616c20746f2063757272656e74206f776e6560008301527f72000000000000000000000000000000000000000000000000000000000000006020830152604082019050919050565b6000612ea2600a836134e6565b91507f46495253545f574f5244000000000000000000000000000000000000000000006000830152600a82019050919050565b6000612ee2601d836134e6565b91507f646174613a6170706c69636174696f6e2f6a736f6e3b6261736536342c0000006000830152601d82019050919050565b6000612f226031836134d5565b91507f4552433732313a207472616e736665722063616c6c6572206973206e6f74206f60008301527f776e6572206e6f7220617070726f7665640000000000000000000000000000006020830152604082019050919050565b612f8481613670565b82525050565b6000612f968284612651565b915081905092915050565b6000612fad8285612651565b9150612fb98284612651565b91508190509392505050565b6000612fd18286612651565b9150612fdd8285612651565b9150612fe98284612651565b9150819050949350505050565b60006130028285612682565b915061300e8284612651565b915061301982612933565b91508190509392505050565b6000613030826127a7565b915061303c8284612651565b915081905092915050565b60006130528261288d565b915061305e8284612651565b915081905092915050565b600061307482612def565b91506130808285612651565b915061308b82612b4b565b91506130978284612651565b91506130a282612bd7565b91508190509392505050565b60006130b982612e95565b91506130c58284612651565b915081905092915050565b60006130db82612ed5565b91506130e78284612651565b915081905092915050565b600060208201905061310760008301846125c1565b92915050565b600060808201905061312260008301876125c1565b61312f60208301866125c1565b61313c6040830185612f7b565b818103606083015261314e81846125df565b905095945050505050565b600060408201905061316e60008301856125c1565b61317b6020830184612f7b565b9392505050565b600060208201905061319760008301846125d0565b92915050565b600060208201905081810360008301526131b78184612618565b905092915050565b600060608201905081810360008301526131d98186612618565b90506131e86020830185612f7b565b6131f560408301846125c1565b949350505050565b6000602082019050818103600083015261321681612701565b9050919050565b6000602082019050818103600083015261323681612767565b9050919050565b60006020820190508181036000830152613256816127e7565b9050919050565b600060208201905081810360008301526132768161284d565b9050919050565b60006020820190508181036000830152613296816128cd565b9050919050565b600060208201905081810360008301526132b681612973565b9050919050565b600060208201905081810360008301526132d6816129d9565b9050919050565b600060208201905081810360008301526132f681612a3f565b9050919050565b6000602082019050818103600083015261331681612aa5565b9050919050565b6000602082019050818103600083015261333681612b0b565b9050919050565b6000602082019050818103600083015261335681612c17565b9050919050565b6000602082019050818103600083015261337681612c57565b9050919050565b6000602082019050818103600083015261339681612cbd565b9050919050565b600060208201905081810360008301526133b681612d23565b9050919050565b600060208201905081810360008301526133d681612d89565b9050919050565b600060208201905081810360008301526133f681612e2f565b9050919050565b6000602082019050818103600083015261341681612f15565b9050919050565b60006020820190506134326000830184612f7b565b92915050565b6000604051905081810181811067ffffffffffffffff8211171561345f5761345e6137f5565b5b8060405250919050565b600067ffffffffffffffff821115613484576134836137f5565b5b601f19601f8301169050602081019050919050565b60008190508160005260206000209050919050565b600081519050919050565b600081519050919050565b600082825260208201905092915050565b600082825260208201905092915050565b600081905092915050565b60006134fc82613670565b915061350783613670565b9250827fffffffffffffffffffffffffffffffffffffffffffffffffffffffffffffffff0382111561353c5761353b613768565b5b828201905092915050565b600061355282613670565b915061355d83613670565b92508261356d5761356c613797565b5b828204905092915050565b600061358382613670565b915061358e83613670565b9250817fffffffffffffffffffffffffffffffffffffffffffffffffffffffffffffffff04831182151516156135c7576135c6613768565b5b828202905092915050565b60006135dd82613670565b91506135e883613670565b9250828210156135fb576135fa613768565b5b828203905092915050565b600061361182613650565b9050919050565b60008115159050919050565b60007fffffffff0000000000000000000000000000000000000000000000000000000082169050919050565b600073ffffffffffffffffffffffffffffffffffffffff82169050919050565b6000819050919050565b82818337600083830152505050565b60005b838110156136a757808201518184015260208101905061368c565b838111156136b6576000848401525b50505050565b600060028204905060018216806136d457607f821691505b602082108114156136e8576136e76137c6565b5b50919050565b60006136f982613670565b91507fffffffffffffffffffffffffffffffffffffffffffffffffffffffffffffffff82141561372c5761372b613768565b5b600182019050919050565b600061374282613670565b915061374d83613670565b92508261375d5761375c613797565b5b828206905092915050565b7f4e487b7100000000000000000000000000000000000000000000000000000000600052601160045260246000fd5b7f4e487b7100000000000000000000000000000000000000000000000000000000600052601260045260246000fd5b7f4e487b7100000000000000000000000000000000000000000000000000000000600052602260045260246000fd5b7f4e487b7100000000000000000000000000000000000000000000000000000000600052604160045260246000fd5b6000601f19601f8301169050919050565b61383e81613606565b811461384957600080fd5b50565b61385581613618565b811461386057600080fd5b50565b61386c81613624565b811461387757600080fd5b50565b61388381613670565b811461388e57600080fd5b5056fe416e204e465420772f20494420257320686173206265656e206d696e74656420746f2025734142434445464748494a4b4c4d4e4f505152535455565758595a6162636465666768696a6b6c6d6e6f707172737475767778797a303132333435363738392b2fa2646970667358221220c27a76370efcd82349962232c99a8395d332f3015d491b31a6ceac2fb1bafc3e64736f6c634300080000333c73766720786d6c6e733d27687474703a2f2f7777772e77332e6f72672f323030302f73766727207072657365727665417370656374526174696f3d27784d696e594d696e206d656574272076696577426f783d273020302033353020333530273e3c7374796c653e2e62617365207b2066696c6c3a2077686974653b20666f6e742d66616d696c793a2073657269663b20666f6e742d73697a653a20323470783b207d3c2f7374796c653e3c726563742077696474683d273130302527206865696768743d2731303025272066696c6c3d27626c61636b27202f3e3c7465787420783d273530252720793d273530252720636c6173733d27626173652720646f6d696e616e742d626173656c696e653d276d6964646c652720746578742d616e63686f723d276d6964646c65273e",
  "linkReferences": {},
  "deployedLinkReferences": {}
}